S01E000041544D4547413332415F44494F5F5265757361626C652E73726563E4
S11300000C942A000C943C000C943C000C943C008E
S11300100C943C000C943C000C943C000C943C006C
S11300200C943C000C943C000C943C000C943C005C
S11300300C943C000C943C000C943C000C943C004C
S11300400C943C000C943C000C943C000C943C003C
S11300500C943C0011241FBECFE5D8E0DEBFCDBF19
S113006020E0A0E6B0E001C01D92A036B207E1F79F
S11300700E943E000C940C010C94000041E061E0ED
S113008080E00E94480061E080E00E94D000FBCF45
S1130090982F683028F481E0423018F480E001C0E1
S11300A081E0913021F130F09230F1F1933009F098
S11300B075C057C0413069F49AB321E030E0A9011A
S11300C002C0440F551F6A95E2F7BA01692B6ABB57
S11300D008959AB321E030E0A90102C0440F551FEE
S11300E06A95E2F7BA01609569236ABB08954130C5
S11300F069F497B321E030E0A90102C0440F551F11
S11301006A95E2F7BA01692B67BB089597B321E0BA
S113011030E0A90102C0440F551F6A95E2F7BA0105
S11301206095692367BB0895413069F494B321E075
S113013030E0A90102C0440F551F6A95E2F7BA01E5
S1130140692B64BB089594B321E030E0A90102C097
S1130150440F551F6A95E2F7BA016095692364BBA1
S11301600895413069F491B321E030E0A90102C05F
S1130170440F551F6A95E2F7BA01692B61BB0895D4
S113018091B321E030E0A90102C0440F551F6A95E4
S1130190E2F7BA016095692361BB089581E008958F
S11301A0813099F028F08230E9F08330A1F527C03E
S11301B02BB381E090E0AC0102C0440F551F6A9557
S11301C0E2F7BA0162276BBB089528B381E090E09F
S11301D0AC0102C0440F551F6A95E2F7BA016227C9
S11301E068BB089525B381E090E0AC0102C0440FE0
S11301F0551F6A95E2F7BA01622765BB08952BB3D0
S113020081E090E0AC0102C0440F551F6A95E2F70B
S10F0210BA0162276BBB0895F894FFCF7D
S9030000FC
