S01F000041544D4547413332415F554152545F5265757361626C652E7372656383
S11300000C942A000C9447000C9447000C9447006D
S11300100C9447000C9447000C9447000C94470040
S11300200C9447000C9447000C9447000C94470030
S11300300C9447000C9467000C94B9000C94900045
S11300400C9447000C9447000C9447000C94470010
S11300500C94470011241FBECFE5D8E0DEBFCDBF0E
S113006010E0A0E6B0E0E8ECF1E002C005900D92EB
S1130070A036B107D9F720E0A0E6B0E001C01D9298
S1130080A23DB207E1F70E9449000C94E2000C94EF
S11300900000E0916A00F0916B0081E090E0099526
S11300A08AEA91E1A4E0B0E000000197A109B10956
S11300B0D9F71092CE001092CF001092D000109277
S11300C0D100E0916C00F0916D000995FFCF1F9273
S11300D00F920FB60F9211242F933F934F935F9378
S11300E06F937F938F939F93AF93BF93EF93FF93FC
S11300F0E091C800F091C900309709F00995FF918B
S1130100EF91BF91AF919F918F917F916F915F918B
S11301104F913F912F910F900FBE0F901F90189504
S11301201F920F920FB60F9211242F933F934F9368
S11301305F936F937F938F939F93AF93BF93EF934B
S1130140FF93E091CA00F091CB00309709F0099534
S1130150FF91EF91BF91AF919F918F917F916F919B
S11301605F914F913F912F910F900FBE0F901F9071
S113017018951F920F920FB60F9211242F933F934D
S11301804F935F936F937F938F939F93AF93BF939B
S1130190EF93FF93E091CC00F091CD00309709F0FC
S11301A00995FF91EF91BF91AF919F918F917F91AD
S11301B06F915F914F913F912F910F900FBE0F90D0
S10B01C01F901895F894FFCF7D
S9030000FC
